:0400000007EF00F016
:0A000800408242ED0CF084EF10F08E
:100800000001000A006400E8031027484F52413AF3
:10081000203025693A3025693A3025690044415431
:10082000413A203025692F3025692F256900484F2E
:1008300052413A2025693A3025693A302569004805
:100840004F52413A203025693A25693A30256900EE
:10085000484F52413A203025693A3025693A256996
:1008600000444154413A203025692F25692F2569DC
:1008700000444154413A2025692F3025692F2569CC
:1008800000484F52413A2025693A25693A30256996
:1008900000484F52413A2025693A3025693A256986
:1008A00000484F52413A203025693A25693A256976
:1008B00000444154413A2025692F25692F256900BC
:1008C000484F52413A2025693A25693A2569004145
:0B08D0004C41524D453A200041000011
:1008DC0000017DBF36D000017D5105E10A0E0001FB
:1008EC007C5DD8A02ED000017FBF2BD000017F51A2
:1008FC0005E10A0E00017E5DD8A023D0000181BF66
:10090C0020D00001815105E10A0E0001805DD8A0C4
:10091C0018D08FC06BF090C06CF0C60E00016D6FDC
:10092C00080E00016E6F7CC06FF07DC070F07EC051
:10093C0071F07FC072F080C073F081C074F0C6ECAF
:10094C000AF000017DBF36D000017D5105E10A0E91
:10095C0000017C5DD8A02ED000017FBF2BD0000100
:10096C007F5105E10A0E00017E5DD8A023D0000165
:10097C0081BF08D0000181511DE10A0E0001805D8C
:10098C00D8B018D08FC06BF090C06CF0870E0001FF
:10099C006D6F080E00016E6F7CC06FF07DC070F043
:1009AC007EC071F07FC072F080C073F081C074F0B3
:1009BC00C6EC0AF000017DBF36D000017D5105E187
:1009CC000A0E00017C5DD8A02ED000017FBF08D09C
:1009DC0000017F5128E10A0E00017E5DD8B023D0C2
:1009EC00000181BF20D00001815105E10A0E0001F8
:1009FC00805DD8A018D08FC06BF090C06CF0970EB3
:100A0C0000016D6F080E00016E6F7CC06FF07DC031
:100A1C0070F07EC071F07FC072F080C073F081C046
:100A2C0074F0C6EC0AF000017DBF36D000017D5198
:100A3C0005E10A0E00017C5DD8A02ED000017FBF1D
:100A4C0008D000017F5128E10A0E00017E5DD8B06C
:100A5C0023D0000181BF08D0000181511DE10A0E95
:100A6C000001805DD8B018D08FC06BF090C06CF0D6
:100A7C00340E00016D6F080E00016E6F7CC06FF0BC
:100A8C007DC070F07EC071F07FC072F080C073F0DA
:100A9C0081C074F0C6EC0AF000017DBF08D00001E3
:100AAC007D5133E10A0E00017C5DD8B02ED00001DF
:100ABC007FBF2BD000017F5105E10A0E00017E5D46
:100ACC00D8A023D0000181BF20D00001815105E1C5
:100ADC000A0E0001805DD8A018D08FC06BF090C0BA
:100AEC006CF0A70E00016D6F080E00016E6F7CC0DC
:100AFC006FF07DC070F07EC071F07FC072F080C06E
:100B0C0073F081C074F0C6EC0AF000017DBF08D010
:100B1C0000017D5133E10A0E00017C5DD8B02ED06E
:100B2C0000017FBF2BD000017F5105E10A0E0001AF
:100B3C007E5DD8A023D0000181BF08D00001815177
:100B4C001DE10A0E0001805DD8B018D08FC06BF08B
:100B5C0090C06CF0450E00016D6F080E00016E6FB9
:100B6C007CC06FF07DC070F07EC071F07FC072F001
:100B7C0080C073F081C074F0C6EC0AF000017DBF38
:100B8C0008D000017D5133E10A0E00017C5DD8B024
:100B9C002ED000017FBF08D000017F5128E10A0E42
:100BAC0000017E5DD8B023D0000181BF20D00001B0
:100BBC00815105E10A0E0001805DD8A018D08FC0CC
:100BCC006BF090C06CF0560E00016D6F080E0001BA
:100BDC006E6F7CC06FF07DC070F07EC071F07FC016
:100BEC0072F080C073F081C074F0C6EC0AF00001A2
:100BFC007DBF08D000017D5133E10A0E00017C5D00
:100C0C00D8B02ED000017FBF08D000017F5128E161
:100C1C000A0E00017E5DD8B023D0000181BF08D040
:100C2C00000181511DE10A0E0001805DD8B018D081
:100C3C008FC06BF090C06CF0110E00016D6F080E40
:100C4C0000016E6F7CC06FF07DC070F07EC071F0E3
:100C5C007FC072F080C073F081C074F0C6EC0AF0F3
:100C6C008FC07CF090C07DF0120000017DBF36D0AB
:100C7C0000017D5105E10A0E00017C5DD8A02ED04B
:100C8C0000017FBF2BD000017F5105E10A0E00014E
:100C9C007E5DD8A023D0000181BF20D000018151FE
:100CAC0005E10A0E0001805DD8A018D091C06BF050
:100CBC0092C06CF0C00E00016D6F080E00016E6FDB
:100CCC007CC06FF07DC070F07EC071F07FC072F0A0
:100CDC0080C073F081C074F0C6EC0AF000017DBFD7
:100CEC0036D000017D5105E10A0E00017C5DD8A0D3
:100CFC002ED000017FBF2BD000017F5105E10A0EE1
:100D0C0000017E5DD8A023D0000181BF08D0000176
:100D1C0081511DE10A0E0001805DD8B018D091C040
:100D2C006BF092C06CF0810E00016D6F080E00012B
:100D3C006E6F7CC06FF07DC070F07EC071F07FC0B4
:100D4C0072F080C073F081C074F0C6EC0AF0000140
:100D5C007DBF36D000017D5105E10A0E00017C5D9E
:100D6C00D8A02ED000017FBF08D000017F5128E110
:100D7C000A0E00017E5DD8B023D0000181BF20D0C7
:100D8C000001815105E10A0E0001805DD8A018D048
:100D9C0091C06BF092C06CF0910E00016D6F080E5B
:100DAC0000016E6F7CC06FF07DC070F07EC071F082
:100DBC007FC072F080C073F081C074F0C6EC0AF092
:100DCC0000017DBF36D000017D5105E10A0E000106
:100DDC007C5DD8A02ED000017FBF08D000017F51D0
:100DEC0028E10A0E00017E5DD8B023D0000181BF3E
:100DFC0008D0000181511DE10A0E0001805DD8B0C0
:100E0C0018D091C06BF092C06CF02E0E00016D6F7B
:100E1C00080E00016E6F7CC06FF07DC070F07EC05C
:100E2C0071F07FC072F080C073F081C074F0C6ECBA
:100E3C000AF000017DBF08D000017D5133E10A0E9C
:100E4C0000017C5DD8B02ED000017FBF2BD00001FB
:100E5C007F5105E10A0E00017E5DD8A023D0000170
:100E6C0081BF20D00001815105E10A0E0001805D97
:100E7C00D8A018D091C06BF092C06CF0A10E0001FC
:100E8C006D6F080E00016E6F7CC06FF07DC070F04E
:100E9C007EC071F07FC072F080C073F081C074F0BE
:100EAC00C6EC0AF000017DBF08D000017D5133E192
:100EBC000A0E00017C5DD8B02ED000017FBF2BD074
:100ECC0000017F5105E10A0E00017E5DD8A023D000
:100EDC00000181BF08D0000181511DE10A0E000103
:100EEC00805DD8B018D091C06BF092C06CF03F0E02
:100EFC0000016D6F080E00016E6F7CC06FF07DC03D
:100F0C0070F07EC071F07FC072F080C073F081C051
:100F1C0074F0C6EC0AF000017DBF08D000017D51D1
:100F2C0033E10A0E00017C5DD8B02ED000017FBFEA
:100F3C0008D000017F5128E10A0E00017E5DD8B077
:100F4C0023D0000181BF20D00001815105E10A0EA0
:100F5C000001805DD8A018D091C06BF092C06CF0ED
:100F6C00500E00016D6F080E00016E6F7CC06FF0AB
:100F7C007DC070F07EC071F07FC072F080C073F0E5
:100F8C0081C074F0C6EC0AF000017DBF08D00001EE
:100F9C007D5133E10A0E00017C5DD8B02ED00001EA
:100FAC007FBF08D000017F5128E10A0E00017E5D51
:100FBC00D8B023D0000181BF08D0000181511DE1C0
:100FCC000A0E0001805DD8B018D091C06BF092C0B1
:100FDC006CF00B0E00016D6F080E00016E6F7CC083
:100FEC006FF07DC070F07EC071F07FC072F080C079
:100FFC0073F081C074F0C6EC0AF091C07CF092C022
:10100C007DF0120020EE02F00750D9260850DA22AB
:10101C00DE2A000EDD2220EE04F00550D926065003
:10102C00DA22DECF01F0DDCF02F001EC12F023BEAC
:10103C0006D023500BE1230E225CD8B007D0240439
:10104C002510D8A403D0224A232A04D0000E236EE4
:10105C00000E226E20EE02F00750D9260850DA223C
:10106C00010EDBBE18D0010EDB5004E13C0EDE5C41
:10107C00D8A011D007C0D9FF08C0DAFFDE2A000EB5
:10108C00DD2220EE02F00750D9260850DA22000E9D
:10109C00DE6E000EDD6E07C0D9FF08C0DAFF010E50
:1010AC00DBBE18D0010EDB5004E13C0EDE5CD8A098
:1010BC0011D020EE04F00750D9260850DA22DE2A8F
:1010CC00000EDD2207C0D9FF08C0DAFF000EDE6E6D
:1010DC00000EDD6E20EE04F00750D9260850DA22FF
:1010EC00010EDBBE18D0010EDB5004E1180EDE5CE5
:1010FC00D8A011D005C0D9FF06C0DAFFDE2A000E39
:10110C00DD2220EE04F00750D9260850DA22000E1A
:10111C00DE6E000EDD6E05C0D9FF06C0DAFFFE0ED6
:10112C000B6EFF0E0C6E10EE02F00550E126065011
:10113C00E222E6CF0DF0E5CF0EF0D8900D360E364C
:10114C000B500D260C500E22A40E0D24E16E000E39
:10115C000E20E26EDE50E65CE650800A116EDE5028
:10116C00800A1158D8B011D020EE02F00550D926C3
:10117C000650DA22DE2A000EDD2205C0D9FF06C099
:10118C00DAFF010EDE6E000EDD6E20EE02F0055071
:10119C00D9260650DA22010EDBBE2ED0010EDB5012
:1011AC0004E10D0EDE5CD8A027D020EE04F0055033
:1011BC00D9260650DA22DE2A000EDD2220EE02F0BD
:1011CC000550D9260650DA22010EDE6E000EDD6EB9
:1011DC0005C0D9FF06C0DAFF010EDE6E000EDD6E13
:1011EC0020EE04F00550D9260650DA22DECF01F0AD
:1011FC00DDCF02F001EC12F005C0D9FF06C0DAFF1A
:10120C00010EDBBE06D0010EDB502FE1DE04D8B0A0
:10121C002CD0FC0E096EFF0E0A6E20EE02F005506B
:10122C00D9260650DA22DECF0BF0DDCF0CF0D890A9
:10123C000B360C3609500B260A500C22A40E0B242C
:10124C00D96E000E0C20DA6E05C0E1FF06C0E2FF7D
:10125C00DECFE6FFDDCFE5FF20EE02F00550D9260C
:10126C000650DA22DE06000EDD5A20EE02F00550A2
:10127C00D9260650DA22010EDBBE06D0010EDB5059
:10128C0022E1DE04D8B01FD020EE02F00550D926A2
:10129C000650DA220C0EDE6E000EDD6E20EE04F02F
:1012AC000550D9260650DA22DE06000EDD5A20EE55
:1012BC0004F00550D9260650DA22DECF01F0DDCF3E
:1012CC0002F001EC12F020EE04F00550D926065085
:1012DC00DA22010EDBAE0AD020EE04F00550D9263E
:1012EC000650DA22000EDE6E000EDD6E20EE04F0EB
:1012FC000750D9260850DA22010EDBAE11D005C0FA
:10130C00D9FF06C0DAFFDE06000EDD5A20EE04F02F
:10131C000750D9260850DA22170EDE6E000EDD6E4D
:10132C0007C0D9FF08C0DAFF010EDBAE11D007C031
:10133C00D9FF08C0DAFF3B0EDE6E000EDD6E20EE2C
:10134C0004F00750D9260850DA22DE06000EDD5ACA
:10135C0020EE02F00750D9260850DA22010EDBAE3F
:10136C00120020EE02F00750D9260850DA223B0E6C
:10137C00DE6E000EDD6E07C0D9FF08C0DAFFDE0698
:10138C00000EDD5A1200070E3F6EDA0E3E6E000E96
:10139C003D6E020E3C6E000E3B6E1C0E3A6E000E45
:1013AC00396E170E386E000E356E3B0E346E000E15
:1013BC00376E230E366E000E336E050E326E000E37
:1013CC002F6E020E2E6E000E316E010E306E000E60
:1013DC000001C16F010EC06F000E0001BF6F010E46
:1013EC00BE6F000E00019C6F000E9B6F000E000183
:1013FC00BD6F010EBC6F000E00019A6F000E996F4D
:10140C00000E0001986F000E976F000E296E000EF3
:10141C00286E000E276E000E266E000E236E000E38
:10142C00226ED58EF28AF294D59CD596D580D59223
:10143C00D584D59A090ED76EE70ED66ED58E000ED2
:10144C00936E010E956EF28EF28C47EC12F070ECEE
:10145C000EF0B7EC11F00001C0050001C111D8A4C9
:10146C0007D0D0EC11F0000E0001C16F000EC06F60
:10147C0083A025D0130E0001876F440E0001866FE8
:10148C00440EE82EFED7862FFCD7872FFAD700F014
:10149C003EEC12F00001BC4BBD2B0001BDBF0DD0CA
:1014AC000001BD5105E1030E0001BC5DD8A005D0C3
:1014BC00000E0001BD6F010EBC6F83B0FED783A27E
:1014CC002CD0130E0001876F440E0001866F440E62
:1014DC00E82EFED7862FFCD7872FFAD700F0284AA4
:1014EC00292A264A272A29BE0AD0295004E1030EAC
:1014FC00285CD8A004D0000E296E000E286E27BEE2
:10150C000AD0275004E1070E265CD8A004D0000EA8
:10151C00276E000E266E83B2FED70001BC050001BB
:10152C00BD11D8B44FEC0DF0020E0001BC19000136
:10153C00BD11D8A405D024502510D8B4C8EC0DF09A
:10154C00EBEC10F020042110D8A404D0000E256E72
:10155C00010E246E24042510D8A40FD023BE06D06F
:10156C00235007E1230E225CD8B003D09DEC11F080
:10157C0004D0000E256E000E246E5CEC10F06BD7C0
:10158C006F0E0001756F000E0001766FA3D0250E53
:10159C0000017B19D8B40AD06BC0D9FF6CC0DAFF3C
:1015AC007BC0DFFF00016B4B6C2B94D0000E000155
:1015BC00776F6DC0F6FF6EC0F7FF00016D4B6E2BA1
:1015CC000800F5CF7BF000017B51000AD8B490D015
:1015DC00640AD8B403D00D0AD8A47CD075C0D9FF46
:1015EC0076C0DAFFDECF79F0DDCF7AF0020E0001A3
:1015FC007527000E762300017AAF08D0030E000188
:10160C0077130001796D7A1FD8B07A2B010E000187
:10161C007B6F050E00017B19D8B416D000017B51ED
:10162C00020D010EF324F66E080EF420F76E09007D
:10163C00F5500001795D0900F55000017A59D8A0E8
:10164C0003D000017B2BE5D777C021F0030E2116C8
:10165C00D8B409D06BC0D9FF6CC0DAFF2D0EDF6E89
:10166C0000016B4B6C2B7BC078F02ED000017851B5
:10167C00020D010EF324F66E080EF420F76E09002D
:10168C00F5CF62F00A00F5CF63F079C060F07AC054
:10169C0061F037EC0FF060C067F061C068F0000ECD
:1016AC0000016A6F0A0E696FD9EC0FF000016751E7
:1016BC00300F00017B6F6BC0D9FF6CC0DAFF7BC0B1
:1016CC00DFFF00016B4B6C2B0001780700017829C0
:1016DC00D8A4CCD76DC0F6FF6EC0F7FF00016D4BE0
:1016EC006E2B0800F5CF7BF000017B51D8A44FD7AF
:1016FC006BC0D9FF6CC0DAFF000EDF6E1200000168
:10170C007DBF2BD000017D5105E10A0E00017C5DEF
:10171C00D8A023D000017FBF20D000017F5105E16C
:10172C000A0E00017E5DD8A018D093C06BF094C057
:10173C006CF0B10E00016D6F080E00016E6F7CC075
:10174C006FF07DC070F07EC071F07FC072F080C011
:10175C0073F081C074F0C6EC0AF000017DBF2BD091
:10176C0000017D5105E10A0E00017C5DD8A023D05B
:10177C0000017FBF08D000017F511DE10A0E00015E
:10178C007E5DD8B018D093C06BF094C06CF0710E25
:10179C0000016D6F080E00016E6F7CC06FF07DC094
:1017AC0070F07EC071F07FC072F080C073F081C0A9
:1017BC0074F0C6EC0AF000017DBF08D000017D5129
:1017CC0028E10A0E00017C5DD8B023D000017FBF58
:1017DC0020D000017F5105E10A0E00017E5DD8A0EA
:1017EC0018D093C06BF094C06CF0610E00016D6F5B
:1017FC00080E00016E6F7CC06FF07DC070F07EC073
:10180C0071F07FC072F080C073F081C074F0C6ECD0
:10181C000AF000017DBF08D000017D5128E10A0EBD
:10182C0000017C5DD8B023D000017FBF08D000013F
:10183C007F511DE10A0E00017E5DD8B018D093C017
:10184C006BF094C06CF01D0E00016D6F080E000162
:10185C006E6F7CC06FF07DC070F07EC071F07FC089
:10186C0072F080C073F081C074F0C6EC0AF093C0C3
:10187C007CF094C07DF012000600FACF12F0FBCF82
:10188C0013F0E9CF14F0EACF15F0E1CF16F0E2CF68
:10189C0017F0D9CF18F0DACF19F0F3CF1AF0F4CF44
:1018AC001BF0F6CF1CF0F7CF1DF0F8CF1EF0F5CFE4
:1018BC001FF0F2A408D0090ED76EE70ED66EF29484
:1018CC0000019B4B9C2B00019CBF26D000019C511E
:1018DC0005E1020E00019B5DD8A01ED00001BE05E3
:1018EC000001BF11D8A404D00001BE69BF6914D097
:1018FC003A0E056E000E066E340E076E000E086E64
:10190C0008EC08F0000E0001C16F010EC06F000E54
:10191C0000019C6F000E9B6F9EAA1DD02B5014E1F2
:10192C00070E2A5CD8B010D09EAAFED79D0E2A2492
:10193C00D96E000E2B20DA6EAE5073EC0FF0DF6E0A
:10194C002A4A2B2A010E2D6E2D50D8A404D0000E3D
:10195C002B6E000E2A6E1FC0F5FF1EC0F8FF1DC0B7
:10196C00F7FF1CC0F6FF1BC0F4FF1AC0F3FF19C031
:10197C00DAFF18C0D9FF17C0E2FF16C0E1FF15C08F
:10198C00EAFF14C0E9FF13C0FBFF12C0FAFF40923C
:10199C00110020EE04F02050D9262150DA22010E3D
:1019AC00DBBE11D0010EDB5004E1180EDE5CD8A0BA
:1019BC000AD020EE04F02050D9262150DA22000E55
:1019CC00DE6E000EDD6E20C0D9FF21C0DAFF010EE5
:1019DC00DBBE0FD0010EDB5004E13C0EDE5CD8A068
:1019EC0008D020C0D9FF21C0DAFF000EDE6E000E39
:1019FC00DD6E20EE02F02050D9262150DA22010EA5
:101A0C00DBBE11D0010EDB5004E13C0EDE5CD8A035
:101A1C000AD020EE02F02050D9262150DA22000EF6
:101A2C00DE6E000EDD6E20EE04F02050D926215023
:101A3C00DA22010EDBAE0AD020EE04F02050D926BB
:101A4C002150DA22170EDE6E000EDD6E20C0D9FF9B
:101A5C0021C0DAFF010EDBAE08D020C0D9FF21C0B7
:101A6C00DAFF3B0EDE6E000EDD6E20EE02F0205033
:101A7C00D9262150DA22010EDBAE120020EE02F044
:101A8C002050D9262150DA223B0EDE6E000EDD6E80
:101A9C00120083A437D0130E216E440E206E440E18
:101AAC00E82EFED7202EFCD7212EFAD700D0260404
:101ABC002710D8A402D0384A392A020E261827102B
:101ACC00D8A402D0344A352A030E26182710D8A4DD
:101ADC0002D0364A372A040E26182710D8A402D072
:101AEC003A4A3B2A050E26182710D8A402D03C4AA5
:101AFC003D2A060E26182710D8A402D03E4A3F2AAB
:101B0C0083B4FED783A61200130E216E440E206EF2
:101B1C00440EE82EFED7202EFCD7212EFAD700D06B
:101B2C0026042710D8A403D03806D8A03906020EF4
:101B3C0026182710D8A403D03406D8A03506030ED7
:101B4C0026182710D8A403D03606D8A03706040EC2
:101B5C0026182710D8A403D03A06D8A03B06050EA9
:101B6C0026182710D8A403D03C06D8A03D06060E94
:101B7C0026182710D8A403D03E06D8A03F0683A66B
:101B8C001200FDD783A423D0130E0001636F440E03
:101B9C000001626F440EE82EFED7622FFCD7632F34
:101BAC00FAD700F028502910D8A402D0324A332A90
:101BBC0028042910D8A402D02E4A2F2A020E281845
:101BCC002910D8A402D0304A312A83B4FED783A678
:101BDC0026D0130E0001636F440E0001626F440E99
:101BEC00E82EFED7622FFCD7632FFAD700F02850CF
:101BFC002910D8A403D03206D8A033062804291003
:101C0C00D8A403D02E06D8A02F06020E281829100F
:101C1C00D8A403D03006D8A0310683B6FED72E0E3A
:101C2C00206E000E216ECFEC0CF012000001636FE1
:101C3C00F00E8116F00E9316939C939A93988A9CAF
:101C4C008A9A8A986BEC12F0300E29EC11F0050E82
:101C5C0033EC12F0300E29EC11F0010E33EC12F0D3
:101C6C00320E29EC11F065EC11F00009D8A4FBD769
:101C7C0065EC11F00009D8A4FBD70001635129ECE5
:101C8C0011F065EC11F00009D8A4FBD7080E29EC73
:101C9C0011F065EC11F00009D8A4FBD70F0E29EC5C
:101CAC0011F065EC11F00009D8A4FBD7010E29EC5A
:101CBC0011F065EC11F00009D8A4FBD7040E29EC47
:101CCC0011F065EC11F00009D8A4FBD7800EAAEC3A
:101CDC000FF012000001995100019A11D8A40ED0F6
:101CEC000C0E29EC11F0000E00019A6F010E996F89
:101CFC00000E0001986F000E976F1200000EAAECF8
:101D0C000FF038C07CF039C07DF034C07EF035C0A7
:101D1C007FF036C080F037C081F03BEC06F07CC021
:101D2C0082F07DC083F0E9EC11F0400EAAEC0FF0CC
:101D3C003AC07CF03BC07DF03CC07EF03DC07FF0F3
:101D4C003EC080F03FC081F085EC0BF07CC082F08F
:101D5C007DC083F0E9EC11F0B5EC0EF0120020D050
:101D6C000F0E29EC11F01200070EAAEC0FF0120066
:101D7C000A0EAAEC0FF012000D0EAAEC0FF01200D6
:101D8C00470EAAEC0FF012004A0EAAEC0FF012004C
:101D9C004F0EAAEC0FF012000C0E29EC11F01200F1
:101DAC0026C063F027C064F000016451000AD8A477
:101DBC00120000016351000AD8B4D2D7010AD8B47A
:101DCC00D3D7030AD8B4D4D7010AD8B4D5D7070AC5
:101DDC00D8B4D6D7010AD8B4D7D7030AD8B4D8D731
:101DEC00010AD8A41200D8D700019751000198110C
:101DFC00D8A412D024502510D8A403D00F0E29EC4F
:101E0C0011F0000E0001986F010E976F000E00018B
:101E1C009A6F000E996F1200000EAAEC0FF0CF0E05
:101E2C000001606F080E0001616F82EC11F0400E32
:101E3C00AAEC0FF032C07CF033C07DF02EC07EF0E7
:101E4C002FC07FF030C080F031C081F06EEC04F018
:101E5C007CC082F07DC083F0E9EC11F0C9EC10F08D
:101E6C001200000E0001666F000E656F00016251DA
:101E7C0000016311D8B42CD0010E0001646F06D0A0
:101E8C000001D890623763370001642B000163AF07
:101E9C00F7D70001D8906537663700016251000111
:101EAC00605D0001635100016159D8A00AD00001A6
:101EBC0062510001605F000163510001615B000130
:101ECC0065810001D890633362330001642FE1D740
:101EDC0065C060F066C061F01200016E310E011831
:101EEC00D8A402D0010E1200320E0118D8A402D0D0
:101EFC00020E1200330E0118D8A402D0030E1200E9
:101F0C00340E0118D8A402D0040E1200350E01189C
:101F1C00D8A402D0050E1200360E0118D8A402D097
:101F2C00060E1200370E0118D8A402D0070E1200AC
:101F3C00380E0118D8A402D0080E1200390E011860
:101F4C00D8A41200090E1200216EF00E9316F00E9A
:101F5C00811621500001606F616B0001608F040ECF
:101F6C000001626F00016135613360330001622F43
:101F7C00F9D7000160510F0B81128A9C8A9A6FEC81
:101F8C0012F08A886FEC12F08A98F00E81162150AC
:101F9C000F0B81126FEC12F08A886FEC12F08A989A
:101FAC000F0E931212000001695100016A11D8B48E
:101FBC0023D0010E206E05D00001D89069376A3706
:101FCC00202A00016AAFF8D7000169510001675D52
:101FDC0000016A5100016859D8A008D0000169516C
:101FEC000001675F00016A510001685B0001D89035
:101FFC006A336933202EE8D767C067F068C068F091
:10200C0012001ED09FC038F0396AA0C034F0356A77
:10201C00A1C036F0376A12009FC03AF03B6AA0C0EC
:10202C003CF03D6AA1C03EF03F6A12009FC032F006
:10203C00336AA0C02EF02F6AA1C030F0316A1200B2
:10204C0000019E51010AD8B4DDD7030AD8B4E4D7F5
:10205C00010AD8A41200EAD79DC088F09EC089F06E
:10206C0000018D6900018E6915D038C08AF034C02A
:10207C008BF036C08CF012003AC08AF03CC08BF06A
:10208C003EC08CF0120032C08AF02EC08BF030C0F3
:10209C008CF0120000019E51010AD8B4E6D7030A55
:1020AC00D8B4EAD7010AD8A41200EDD713D0020E87
:1020BC002D6E120017EC12F01200A7EC10F0050EAA
:1020CC002D6E1200000E2D6E120048EC11F0000E59
:1020DC002D6E12002D50000AD8B41200010AD8B48B
:1020EC00E6D7030AD8B4E6D7010AD8B4E6D7070A6C
:1020FC00D8B4E8D7010AD8A41200E7D74E0EF66E72
:10210C00240EF76E000EF86E00EEA4F010EE18F030
:10211C000900F5CFEEFFE550E150FAE100EE88F052
:10212C001C0EEE6AE806FDE100EE22F01E0EEE6AD1
:10213C00E806FDE140904092000EF86E0001C9EFF8
:10214C0009F018D032EC10F0120032EC10F0120042
:10215C0032EC10F0120000019E51010AD8B4F2D7F3
:10216C00030AD8B4F2D7010AD8A41200F1D707ECAD
:10217C0010F0120000019D51010AD8B4ECD7030AEB
:10218C00D8A41200F4D70CD0410EAAEC0FF0120018
:10219C00440EAAEC0FF01200470EAAEC0FF012003E
:1021AC0028C063F029C064F000016451000AD8A46F
:1021BC00120000016351000AD8B4E6D7010AD8B462
:1021CC00E7D7030AD8A41200E7D73250381817E122
:1021DC0033503918D8A413D02E50341810E12F5086
:1021EC003518D8A40CD03050361809E131503718B6
:1021FC00D8A405D0000E216E010E206E1200000E28
:10220C00216E000E206E1200216EF00E9316F00E51
:10221C00811621380F0B0F0B81128A8A8A9C6FEC66
:10222C0012F08A886FEC12F08A98F00E8116215009
:10223C000F0B81126FEC12F08A886FEC12F08A98F7
:10224C000F0E93121200216EF00E9316F00E8116E3
:10225C0021380F0B0F0B81128A9C8A9A6FEC12F0AB
:10226C008A886FEC12F08A98F00E811621500F0BB1
:10227C0081126FEC12F08A886FEC12F08A980F0EB4
:10228C00931212000001885160EC12F00001895188
:10229C0060EC12F000018A5160EC12F000018B51DD
:1022AC0060EC12F000018C5160EC12F000018D51C9
:1022BC0060EC12F000018E5160EC12F012008A8C6E
:1022CC008A9A6FEC12F08A886FEC12F081A60AD011
:1022DC008A986FEC12F08A886FEC12F08A988A9CBC
:1022EC00010E12008A986FEC12F08A886FEC12F0D3
:1022FC008A988A9C000E120010D065EC11F000092F
:10230C00D8A4FBD760C0F6FF61C0F7FF0800F550FA
:10231C000AEC11F00001604B612B60C0F6FF61C04C
:10232C00F7FF0800F5500009D8B41200E6D70C0EE0
:10233C0029EC11F00F0EAAEC0FF0D80E0001606F13
:10234C00080E0001616F82EC11F00F0EAAEC0FF079
:10235C00D60E0001606F080E0001616F82EC11F067
:10236C001200000E2B6E000E2A6EAC84810EAF6E26
:10237C00AB8EAC8AAB88900EAB6E200EAC6E949C80
:10238C00948E9E9A9F9A9D8AF28CF28EF28C000EFD
:10239C002D6E120006D070EC0EF01200FAEC0EF05E
:1023AC001200BCC084F0BDC085F000018551000A4C
:1023BC00D8A4120000018451010AD8B4ECD7030A46
:1023CC00D8A41200EBD70FD065EC11F00009D8A4FB
:1023DC00FBD782C0D9FF83C0DAFFDF500AEC11F0C3
:1023EC000001824B832B82C0D9FF83C0DAFFDF5000
:1023FC00D8B41200E9D7030E0114036E000E0214B8
:10240C00046E03500410D8A406D0000E0001A76F70
:10241C001D0EA66F1200000E0001A76F1C0EA66FFA
:10242C0012009D0E206E000E216E66EC12F0200440
:10243C002110D8A403D0030E2D6E1200040E2D6EA5
:10244C0012001F001C001F001E001F001E001F009A
:10245C001F001E001F001E001F00216E0D0E206E9F
:10246C00FC0EE82EFED7202EFCD7212EF7D712001B
:10247C0065EC11F00009D8A4FBD7010E29EC11F082
:10248C001200280E1CEC0EF065EC11F00009D8B40B
:10249C001200FAD7206EC80E00D0E82EFDD7202EE1
:1024AC00FAD71200206E030EE82EFED700F0202E75
:1024BC00FAD71200206E9EA8FED720C0ADFF1200E6
:1024CC00000E216E010E206E1200B40E50EC12F0B4
:0A24DC001200780E58EC12F0120006
:020000040020DA
:08000000FFFFFFFFFFFFFFFF00
:020000040030CA
:0E00000000051F1FFF8185FF0FC00FE00F409E
:00000001FF
